:100000000C945D000C9485000C9485000C94850084
:100010000C9485000C9485000C9485000C9485004C
:100020000C9485000C9485000C9485000C9485003C
:100030000C9485000C9485000C9485000C9485002C
:100040000C94C7040C9485000C9495040C946F04D4
:100050000C9485000C9485000C9485000C9485000C
:100060000C9485000C9485000000000024002700FB
:100070002A0000000000250028002B0004040404CE
:100080000404040402020202020203030303030342
:10009000010204081020408001020408102001021F
:1000A00004081020000000080002010000030407FB
:1000B0000000000000000000110511241FBECFEF5A
:1000C000D8E0DEBFCDBF22E0AEE5B1E001C01D92B9
:1000D000A635B207E1F711E0A0E0B1E0E6E7F5E10F
:1000E00002C005900D92AE35B107D9F710E0CDE50D
:1000F000D0E004C02197FE010E94B30ACC35D1079D
:10010000C9F70E9450050C94B90A0C940000AF92F4
:10011000BF92CF92DF92EF92FF920F931F93CF93F4
:10012000DF936C017B018B01040F151FEB015E0156
:10013000AE18BF08C017D10759F06991D601ED91EB
:10014000FC910190F081E02DC6010995892B79F78A
:10015000C501DF91CF911F910F91FF90EF90DF903C
:10016000CF90BF90AF900895FC01538D448D252F03
:1001700030E0842F90E0821B930B541710F0CF9641
:10018000089501970895FC01918D828D981761F073
:10019000A28DAE0FBF2FB11D5D968C91928D9F5F8A
:1001A0009F73928F90E008958FEF9FEF0895FC0169
:1001B000918D828D981731F0828DE80FF11D858D1C
:1001C00090E008958FEF9FEF0895FC01918D228DAF
:1001D000892F90E0805C9F4F821B91098F73992734
:1001E000089583E791E00E94E50021E0892B09F45E
:1001F00020E0822F089580E090E0892B29F00E9472
:10020000F10081110C9400000895FC01A48DA80F49
:10021000B92FB11DA35ABF4F2C91848D90E0019648
:100220008F739927848FA689B7892C93A089B18968
:100230008C91837080648C93938D848D981306C009
:100240000288F389E02D80818F7D80830895EF926D
:10025000FF920F931F93CF93DF93EC0181E0888F80
:100260009B8D8C8D98131AC0E889F989808185FF50
:1002700015C09FB7F894EE89FF896083E889F989F2
:1002800080818370806480839FBF81E090E0DF91F4
:10029000CF911F910F91FF90EF900895F62E0B8D47
:1002A00010E00F5F1F4F0F731127E02E8C8D8E1102
:1002B0000CC00FB607FCFACFE889F989808185FF69
:1002C000F5CFCE010E940501F1CFEB8DEC0FFD2F94
:1002D000F11DE35AFF4FF0829FB7F8940B8FEA8924
:1002E000FB8980818062CFCFCF93DF93EC01888D33
:1002F0008823B9F0AA89BB89E889F9898C9185FDA1
:1003000003C0808186FD0DC00FB607FCF7CF8C912E
:1003100085FFF2CF808185FFEDCFCE010E940501E0
:10032000E9CFDF91CF91089590E0FC01EC55FF4FAC
:100330002491FC01E057FF4F3491FC01E458FF4F3A
:10034000E491EE23C9F0222339F0233001F1A8F41F
:10035000213019F1223029F1F0E0EE0FFF1FEE58A5
:10036000FF4FA591B4918FB7F894EC91611126C01D
:1003700030953E233C938FBF08952730A9F0283055
:10038000C9F0243049F7809180008F7D03C08091AF
:1003900080008F7780938000DFCF84B58F7784BD16
:1003A000DBCF84B58F7DFBCF8091B0008F778093BA
:1003B000B000D2CF8091B0008F7DF9CF3E2BDACF45
:1003C000CF93DF9390E0FC01E057FF4F24918458D6
:1003D0009F4FFC0184918823D1F090E0880F991FF2
:1003E000FC01E859FF4FA591B491FC01EE58FF4F75
:1003F000C591D49161110EC09FB7F8948C91E22FF2
:10040000E0958E238C932881E223E8839FBFDF91C0
:10041000CF9108958FB7F894EC91E22BEC938FBFB6
:10042000F6CF8E50806480937C0080917A00806447
:1004300080937A0080917A0086FDFCCF80917800CD
:100440009091790008953FB7F8948091630190915D
:100450006401A0916501B091660126B5A89B05C015
:100460002F3F19F00196A11DB11D3FBFBA2FA92F33
:10047000982F8827BC01CD01620F711D811D911D30
:1004800042E0660F771F881F991F4A95D1F708959C
:100490008F929F92AF92BF92CF92DF92EF92FF9294
:1004A0004B015C010E9423026B017C010E9423022C
:1004B0006C197D098E099F09683E7340810591057D
:1004C000A8F321E0821A9108A108B10888EEC80EAD
:1004D00083E0D81EE11CF11C81149104A104B10435
:1004E00029F7FF90EF90DF90CF90BF90AF909F9053
:1004F0008F9008952FB7F89460915F01709160011B
:1005000080916101909162012FBF0895CF92DF9297
:10051000EF92FF92CF936B017C01AC019B016EEFD8
:100520007FEF81E090E00E9452099B01AC0160E006
:1005300074E284EF90E00E946209C0E0EC2FF0E0EA
:10054000EE0FFF1FE05FFE4F80819181CF5F82172A
:100550009307A0F3A7019601220F331F441F551FD5
:10056000EC2FF0E0EE0FFF1FE05FFE4FA081B181A6
:100570000E9484099B01AC0160E074E284EF90E08A
:100580000E94620930938700209386008091810049
:10059000887FC770C82BC093810081E0CF91FF9006
:1005A000EF90DF90CF9008950F931F93CF93DF9339
:1005B000D82FC62F61E00E94E001C11108C060E0A1
:1005C0008D2FDF91CF911F910F910C949401CF3F0C
:1005D00011F461E0F5CFED2FF0E0EC55FF4FE49121
:1005E000E33049F128F4E23091F0C7FFE8CFF1CFD2
:1005F000E430F1F1E830C9F78091B0008062809377
:10060000B000A091B300B0E004EB10E007C084B5E7
:10061000806284BDA7B5B0E008E410E02C2F30E084
:100620000E948F092FEF30E040E050E00E94620905
:10063000F801208318C0809180008068809380003A
:10064000A0918600B091870008E810E02C2F30E0E0
:100650000E948F092FEF30E040E050E00E946209D5
:10066000F80131832083DF91CF911F910F9108957D
:1006700080918000806280938000A0918600B0917C
:1006800087000AE810E0E2CF8F929F92AF92BF926C
:10069000CF92DF92EF92FF920F931F93CF936B0154
:1006A0007C01AEEFB1E0AC019B010E9484099B018B
:1006B000AC0160E074E284EF90E00E946209C9013D
:1006C000C0E0CC0CDD1CEE1CFF1C812C44E2942EFF
:1006D00044EFA42EB12CCF5FEC2FF0E0EE0FFF1F04
:1006E000E050FF4F0081118108171907A0F3D801CE
:1006F000A70196010E9484099B01AC01C501B401C8
:100700000E946209C8012F3F310509F020F72093AC
:10071000B3008091B100887FC770C82BC093B1002F
:1007200081E0CF911F910F91FF90EF90DF90CF90DC
:10073000BF90AF909F908F9008950F931F93E82FD5
:10074000CB01BA010E2E000CFF0BEC55FF4FE491CC
:100750002DEF2E0F223078F48A019C0101501109EF
:1007600021093109003814482E413105A8F41F91A0
:100770000F910C948602E83079F48A019C010F51A4
:10078000110921093109023614482E41310520F49E
:100790001F910F910C94440380E01F910F910895D5
:1007A000FC0101900020E9F73197AF01481B590B7C
:1007B000BC0183E791E00C9487008F929F92AF92E7
:1007C000BF920F931F93CF93DF93CDB7DEB7A1975F
:1007D0000FB6F894DEBF0FBECDBF19A2423008F4A9
:1007E0004AE08E010F5D1F4F842E912CB12CA12C5D
:1007F000A50194010E946209E62FB901CA01EA30FD
:10080000F4F4E05DD801EE938D01232B242B252BEE
:1008100079F790E080E0109719F0CD010E94D003A5
:10082000A1960FB6F894DEBF0FBECDBFDF91CF917A
:100830001F910F91BF90AF909F908F900895E95CAA
:10084000E1CFEF92FF920F931F93CF93DF9300D0EE
:1008500000D0CDB7DEB783E791E00E94C30083E705
:1008600091E00E94C3008E010F5F1F4F78018A3311
:1008700041F0F80181938F0183E791E00E94C3006A
:10088000F6CFC7010E943108182F83E791E00E943C
:10089000C3008053990B8230910520F4682F812F7B
:1008A0000E94940183E791E00E94C3008A3011F016
:1008B0008D30C1F783E791E00E94D7008A3021F4A0
:1008C00083E791E00E94C3000F900F900F900F906C
:1008D000DF91CF911F910F91FF90EF9008951F929C
:1008E0000F920FB60F9211242F933F934F935F9364
:1008F0006F937F938F939F93AF93BF93EF93FF93E8
:1009000083E791E00E940501FF91EF91BF91AF91C4
:100910009F918F917F916F915F914F913F912F9117
:100920000F900FBE0F901F9018951F920F920FB649
:100930000F9211242F938F939F93EF93FF93E09146
:100940008301F09184018081E0918901F0918A0115
:1009500082FD1BC0908180918C018F5F8F732091ED
:100960008D01821741F0E0918C01F0E0ED58FE4FCF
:10097000958F80938C01FF91EF919F918F912F9193
:100980000F900FBE0F901F9018958081F4CF1F928B
:100990000F920FB60F9211242F933F938F939F9333
:1009A000AF93BF9380915F0190916001A09161012D
:1009B000B091620130915E0123E0230F2D3758F58D
:1009C0000196A11DB11D20935E0180935F0190935C
:1009D0006001A0936101B0936201809163019091E5
:1009E0006401A0916501B09166010196A11DB11D40
:1009F0008093630190936401A0936501B0936601B5
:100A0000BF91AF919F918F913F912F910F900FBE0A
:100A10000F901F90189526E8230F0296A11DB11D77
:100A2000D2CFE3E7F1E01382128288EE93E0A0E0F8
:100A3000B0E084839583A683B78380E291E09183BD
:100A4000808385EC90E09587848784EC90E097879D
:100A5000868780EC90E0918B808B81EC90E0938B8B
:100A6000828B82EC90E0958B848B86EC90E0978B68
:100A7000868B118E128E138E148EE0E1F2E01682B8
:100A8000178210861186128613861486158616869E
:100A90001786108A118A128A138A148A158A089571
:100AA000789484B5826084BD84B5816084BD85B549
:100AB000826085BD85B5816085BD80916E00816055
:100AC00080936E00109281008091810082608093FB
:100AD00081008091810081608093810080918000FD
:100AE0008160809380008091B10084608093B10028
:100AF0008091B00081608093B00080917A00846022
:100B000080937A0080917A00826080937A0080914D
:100B10007A00816080937A0080917A008068809367
:100B20007A001092C1001092520210925302109259
:100B30005402109255021092120210921302109257
:100B40001402109215020E947A026B017C014B0183
:100B50005C0128EB820E2BE0921EA11CB11C0E94AE
:100B60007A026C157D058E059F0528F0861697067E
:100B7000A806B906A0F768EE73E080E090E00E9456
:100B80004802E0918301F091840182E08083E0914A
:100B90007F01F09180011082E0918101F09182014A
:100BA00080E1808310928B01E0918701F0918801B0
:100BB00086E08083E0918501F091860180818061EB
:100BC0008083E0918501F091860180818860808337
:100BD000E0918501F0918601808180688083E091B9
:100BE0008501F091860180818F7D80830E947A0249
:100BF0006093120270931302809314029093150273
:100C00008EE291E00E94D0030E947A026B017C0187
:100C10004B015C013AE0830E911CA11CB11C0E94A7
:100C20007A026C157D058E059F0528F086169706BD
:100C3000A806B906A0F781E0809326020E947A02F6
:100C40006093120270931302809314029093150222
:100C50008FE391E00E94D003809180008C7F80938D
:100C6000800080918100877E80618093810064EFA5
:100C700071E080E090E00E9486028091B0008C7F5D
:100C800081608093B0008091B10088608093B10052
:100C900064EF71E080E090E00E94440348EA51E68E
:100CA00060E070E083E00E949D0348EA51E660E066
:100CB00070E08BE00E949D0360E08EE00E94E00106
:100CC00060E08FE00E94E00161E083E00E94E001CB
:100CD00061E08BE00E94E00168EE73E080E090E06C
:100CE0000E94480280E0282E80E0382E94EF892E62
:100CF00099249394A12CB12C0E947A02672B682B23
:100D0000692B09F4EFC00E947A0200916F011091E3
:100D10007001209171013091720160177107820793
:100D2000930708F47FC100916F0110917001209129
:100D30007101309172016B017C01C01AD10AE20A83
:100D4000F30A970186010A3F11052105310508F4D0
:100D5000D1C060936F017093700180937101909383
:100D6000720180921E0290921F02A0922002B09205
:100D70002102109222021092230210922402109259
:100D800025028091160290911702A0911802B0914D
:100D9000190280931A0290931B02A0931C02B09335
:100DA0001D020E947A0260931602709317028093CC
:100DB00018029093190283E791E00E94D7008436CD
:100DC00011F40E9421040E947A026093120270932F
:100DD000130280931402909315020E947A022B0151
:100DE0003C0186E491E00E94D0034AE061E070E0BB
:100DF00080E090E00E94DD038DE491E00E94D0034A
:100E00004AE0C301B2010E94DD038FE491E00E9439
:100E1000D0038091160290911702A0911802B09110
:100E20001902A3019201281B390B4A0B5B0BCA0163
:100E3000B9014AE00E94DD038FE491E00E94D003F3
:100E40006091160270911702809118029091190218
:100E500000911A0210911B0220911C0230911D0278
:100E6000601B710B820B930B4AE00E94DD0381E54E
:100E700091E00E94D0030E947A024AE00E94DD03C2
:100E800083E591E00E94D0038AE591E00E94D003BF
:100E90000E947A026B017C012B013C0132E0430E7F
:100EA000511C611C711C0E947A026C157D058E0517
:100EB0009F0528F04616570668067906A0F783E7CF
:100EC00091E00E94D700843611F40E9421040E9410
:100ED0007A0260931602709317028093180290931F
:100EE000190208C00E947A026230710581059105DD
:100EF00008F009CF8EE00E9411028C018FE00E9461
:100F00001102EC01B801110F880B990B0E945908CE
:100F10002AE939E94CE453E40E940B0A20E030E06E
:100F200040EA51EC0E94940820E030E040EA52E4AC
:100F30000E949F0920E030E040EA50E40E949408BB
:100F40000E947D0A8B0170936E0160936D01BE015A
:100F5000DD0F880B990B0E9459082AE939E94CE406
:100F600053E40E940B0A20E030E040EA51EC0E947A
:100F7000940820E030E040EA52E40E949F0920E01B
:100F800030E040EA50E40E9494080E947D0A9B01F0
:100F900070936A01609369010A3511050CF04BC02A
:100FA00010926E0110926D012A3531050CF04EC081
:100FB00010926A011092690160916D0170916E0149
:100FC00080916B0190916C016817790739F07093EB
:100FD0006C0160936B0183E00E94D402609169010F
:100FE00070916A0180916701909168016817790793
:100FF00039F070936801609367018BE00E94D4021E
:1010000060ED77E080E090E00E9448022114310416
:1010100009F472CE0E94F100882309F46DCE0E947B
:1010200000006ACE60936F0170937001809371012C
:101030009093720178CE0F3F11050CF4B5CF4FEFAE
:1010400050E050936E0140936D01AECF2F3F3105BC
:101050000CF4B2CF8FEF90E090936A018093690116
:10106000ABCFFC0188279927E89421912032E9F33E
:10107000293010F02E30C8F32B3241F02D3239F4E4
:10108000689404C00E944F08820F911D2191205343
:101090002A30C0F31EF4909581959F4F08957AE011
:1010A000979F902D879F802D910D11240895E8948E
:1010B00009C097FB3EF490958095709561957F4FA0
:1010C0008F4F9F4F9923A9F0F92F96E9BB2793954E
:1010D000F695879577956795B795F111F8CFFAF45E
:1010E000BB0F11F460FF1BC06F5F7F4F8F4F9F4F8F
:1010F00016C0882311F096E911C0772321F09EE8ED
:10110000872F762F05C0662371F096E8862F70E052
:1011100060E02AF09A95660F771F881FDAF7880F2C
:101120009695879597F908950E94A7080C94180939
:101130000E940A0938F00E94110920F0952311F04D
:101140000C9401090C94070911240C944C090E9479
:10115000290970F3959FC1F3950F50E0551F629FC9
:10116000F001729FBB27F00DB11D639FAA27F00D00
:10117000B11DAA1F649F6627B00DA11D661F829F27
:101180002227B00DA11D621F739FB00DA11D621F0C
:10119000839FA00D611D221F749F3327A00D611D29
:1011A000231F849F600D211D822F762F6A2F11240B
:1011B0009F5750409AF0F1F088234AF0EE0FFF1F3E
:1011C000BB1F661F771F881F91505040A9F79E3F95
:1011D000510580F00C9401090C944C095F3FE4F335
:1011E000983ED4F3869577956795B795F795E795EB
:1011F0009F5FC1F7FE2B880F911D9695879597F9F4
:10120000089597F99F6780E870E060E008959FEF88
:1012100080EC089500240A9416161706180609068D
:10122000089500240A94121613061406050608955C
:10123000092E0394000C11F4882352F0BB0F40F4E4
:10124000BF2B11F460FF04C06F5F7F4F8F4F9F4F24
:10125000089557FD9058440F551F59F05F3F71F0A6
:101260004795880F97FB991F61F09F3F79F087950D
:101270000895121613061406551FF2CF4695F1DF96
:1012800008C0161617061806991FF1CF8695710526
:10129000610508940895E894BB2766277727CB015A
:1012A00097F90895DB018F939F930E948409BF9162
:1012B000AF91A29F800D911DA39F900DB29F900DA5
:1012C00011240895A1E21A2EAA1BBB1BFD010DC01B
:1012D000AA1FBB1FEE1FFF1FA217B307E407F507E6
:1012E00020F0A21BB30BE40BF50B661F771F881FC2
:1012F000991F1A9469F760957095809590959B0158
:10130000AC01BD01CF0108950E948F09A59F900DEA
:10131000B49F900DA49F800D911D11240895A29F4C
:10132000B001B39FC001A39F700D811D1124911DB9
:10133000B29F700D811D1124911D08955058BB2737
:10134000AA270E94B6090C9418090E940A0938F0CD
:101350000E94110920F039F49F3F19F426F40C94EF
:1013600007090EF4E095E7FB0C940109E92F0E94B0
:10137000290958F3BA17620773078407950720F005
:1013800079F4A6F50C944B090EF4E0950B2EBA2FC8
:10139000A02D0B01B90190010C01CA01A00111247B
:1013A000FF27591B99F0593F50F4503E68F11A1627
:1013B000F040A22F232F342F4427585FF3CF4695B8
:1013C00037952795A795F0405395C9F77EF41F16DA
:1013D000BA0B620B730B840BBAF09150A1F0FF0FA4
:1013E000BB1F661F771F881FC2F70EC0BA0F621F90
:1013F000731F841F48F4879577956795B795F79580
:101400009E3F08F0B0CF9395880F08F09927EE0F14
:101410009795879508950E941F0A0C9418090E94B9
:10142000110958F00E940A0940F029F45F3F29F0A1
:101430000C94010951110C944C090C9407090E9459
:10144000290968F39923B1F3552391F3951B550BA3
:10145000BB27AA2762177307840738F09F5F5F4F87
:10146000220F331F441FAA1FA9F335D00E2E3AF0C6
:10147000E0E832D091505040E695001CCAF72BD0DE
:10148000FE2F29D0660F771F881FBB1F261737072F
:101490004807AB07B0E809F0BB0B802DBF01FF2761
:1014A00093585F4F3AF09E3F510578F00C94010934
:1014B0000C944C095F3FE4F3983ED4F386957795FE
:1014C0006795B795F7959F5FC9F7880F911D96951A
:1014D000879597F90895E1E0660F771F881FBB1F76
:1014E000621773078407BA0720F0621B730B840B23
:1014F000BA0BEE1F88F7E09508950E94840A68945D
:10150000B1110C944C0908950E94310988F09F573D
:1015100098F0B92F9927B751B0F0E1F0660F771F17
:10152000881F991F1AF0BA95C9F714C0B13091F00D
:101530000E944B09B1E008950C944B09672F782F56
:101540008827B85F39F0B93FCCF3869577956795D2
:10155000B395D9F73EF490958095709561957F4F3E
:101560008F4F9F4F0895EE0FFF1F0590F491E02DD0
:061570000994F894FFCF7E
:101576000000010008002000400080000001000477
:101586000000010008004000000100040000000007
:1015960027018700B4007401E500C300D700564D4B
:1015A6004450565F317C315F564D4450560A0056C2
:1015B6004D4450525F00564D4450455F003A323A12
:0E15C600007C005F564D445045000D0A0000A9
:00000001FF
